:100000000C94BF000C94E7000C94E7000C94E700FC
:100010000C94E7000C94E7000C94E7000C94E700C4
:100020000C94E7000C94E7000C94E7000C94E700B4
:100030000C94E7000C94E7000C94E7000C94E700A4
:100040000C94CA090C94E7000C941C0C0C94E70067
:100050000C94E7000C94E7000C94E7000C94E70084
:100060000C94E7000C94E7000E030E032303230314
:10007000E407E407E407E407E407E407E4075404BB
:100080005F0470047004E407E4073F0350037B033C
:100090008F03C103D403090420048A04B20499071E
:1000A00099079D0706054705F60469058A05AB050E
:1000B000E605280636063B0656066E062D06DF06C2
:1000C0001C07C006F3063B075E074B077907990735
:1000D0009D077E069C06E407E407E407E407E407BF
:1000E000A807E407E407E407E407E407E407E407F4
:1000F000E407E407E407E407E407E407E407E407A8
:10010000E407E407E407E407E407E407E407E40797
:10011000E407E407E407E407E407E407E407E40787
:10012000E407E407E407E407E407E407E407DC0482
:10013000000024272A000025282B0000232629045C
:10014000040404040404040202020202020303037E
:100150000303030102040810204080010204081078
:100160002001020408102000000007000201000026
:10017000030406000000000000000000C90911246B
:100180001FBECFEFD4E0DEBFCDBF11E0A0E0B1E0F5
:10019000E8E6FBE102C005900D92A432B107D9F761
:1001A00014E0A4E2B1E001C01D92AD3CB107E1F75B
:1001B00011E0CEE7D1E004C02297FE010E949B0D22
:1001C000CC37D107C9F70E94F2080C94B30D0C94F8
:1001D0000000DB010E949F0D802D99270895DB010F
:1001E000042E0E94A70D08959927982F8827772716
:1001F000862B972B0895A0913202A150EA2FFF275A
:10020000E45DFD4F4081A150EA2FFF27E45DFD4FE3
:100210002081A150EA2FFF27E45DFD4F8081A1508E
:10022000A0933202552747FD5095542F442733277A
:10023000422B532B992787FD9095382F2227BB27D8
:10024000A45DBD4F8C919927282B392B1092280142
:100250001092290110922A012417350721F481E018
:10026000809328010895241735071CF481E08093BA
:100270002901421753071CF481E080932A01089555
:1002800081E0809327011092320210923602109280
:10029000350208950F931F930E94EF0960933F0466
:1002A0007093400480934104909342040E94EF09AC
:1002B00060933B0470933C0480933D0490933E0410
:1002C00020913F04309140044091410450914204F8
:1002D000621B730B840B950B6958734180409040EF
:1002E00020F081E08093430421C084E494E00E94E4
:1002F000BF098823D9F284E494E00E94BC098C01F0
:10030000AC01662757FD6095762F20E030E084E44D
:1003100094E00E947C0962E070E080E090E00E943E
:10032000070A84E494E00E94B909C8011F910F9163
:1003300008951F93CF93DF93EC01162FBC0184E245
:1003400091E00E94E900811731F0412FBE0184E263
:1003500091E00E94EF00DF91CF911F9108958230CC
:1003600069F0833018F48130A9F405C0833049F076
:10037000843081F40BC08091140105C08091160176
:1003800002C0809118010E94570B089580911A01B4
:100390000E94570B0895CF93DF93C1E0D0E061E056
:1003A0008C2F0E94AF0164E670E080E090E00E9434
:1003B000070A2196C530D10591F760E08C2F0E9485
:1003C000AF0164E670E080E090E00E94070A2197A8
:1003D000A1F7DF91CF9108951092270160E08091FD
:1003E00014010E94570B60E0809116010E94570B88
:1003F00060E0809118010E94570B60E080911A0123
:100400000E94570B08950F931F93CF93DF9340E8FB
:1004100055E260E070E084E494E00E94C30960E08B
:10042000809106010E94ED0A60E0809108010E941F
:10043000ED0A60E080910A010E94ED0A60E080917F
:100440000C010E94ED0A60E080910E010E94ED0A0D
:1004500060E0809110010E94ED0A60E0809112013D
:100460000E94ED0A61E0809114010E94ED0A61E0B2
:10047000809116010E94ED0A61E0809118010E94AE
:10048000ED0A61E080911A010E94ED0A61E080911D
:1004900006010E94570B61E0809108010E94570BF2
:1004A00061E080910A010E94570B61E080910C018C
:1004B0000E94570B61E080910E010E94570B61E092
:1004C000809110010E94570B61E0809112010E94FF
:1004D000570B0E94CB0160E071E084E494E00E943D
:1004E000AA0904C084E494E00E94BC0984E494E076
:1004F0000E94BF098823B1F784E494E00E94B909FF
:10050000109238041092370461E070E084E291E0C8
:100510000E94E900082F1127102F0027109338049C
:100520000093370460E070E084E291E00E94E9000B
:100530009927802B912B90933804809337048F5FF9
:10054000914020F010923804109237044091370403
:1005500050913804662777272AE030E084E494E05D
:100560000E948C098091370490913804892BF9F00E
:10057000C0E0D0E007E312E00AC02296BE0184E2A8
:1005800091E00E94E900F80181938F012197809109
:10059000370490913804C817D90778F381E0809325
:1005A0002701109232021092360210923502DF912A
:1005B000CF911F910F910895FF920F931F93CF93A7
:1005C000DF9380912701813009F0FEC4A0913502AC
:1005D000B09136028091370490913804A817B9077A
:1005E00008F0F2C4FD01E95CFD4F8081AD014F5F71
:1005F0005F4F50933602409335029927AA27BB27B5
:10060000FC013197E436F10508F0DEC4EC5CFF4FE5
:10061000EE0FFF1F0590F491E02D099490913202A6
:10062000E92FFF27E45DFD4FDA01A95CBD4F8C91F6
:1006300080839F5F909332024F5F5F4F50933602EB
:1006400040933502C1C430913202E32FFF27E45DAD
:10065000FD4FDA01A95CBD4F8C9180833F5FCA01D9
:100660000196E32FFF27E45DFD4FDC01A95CBD4F40
:100670002C9120833F5F309332020196C2C190914A
:10068000320291509150A92FBB279F5FA45DBD4FAF
:10069000E92FFF27E45DFD4F8C912081820F3BC045
:1006A000E0913202E1501E2F1150A12FA150A15014
:1006B0006A2F7727AF5FBB27A45DBD4F4C915527AD
:1006C000542F4427645D7D4FEB0188819927482B87
:1006D000592BFF27E45DFD4F20813327322F22273E
:1006E000E12FFF27E45DFD4F80819927282B392BCF
:1006F000420F531F3EC09091320291509150A92F4A
:10070000BB279F5FA45DBD4FE92FFF27E45DFD4F31
:100710008C912081821B8C939093320255C4E0917E
:100720003202E1501E2F1150A12FA150A1506A2F6B
:100730007727AF5FBB27A45DBD4F4C915527542F42
:100740004427645D7D4FEB0188819927482B592B05
:10075000FF27E45DFD4F20813327322F2227E12F31
:10076000FF27E45DFD4F80819927282B392B421B01
:10077000530B4883452F550F550B4C931093320262
:1007800023C49091320291509150A92FBB279F5FB3
:10079000A45DBD4FE92FFF27E45DFD4F80812C91C3
:1007A000829F802D1124B7CFE0913202E1501E2F9D
:1007B0001150A12FA150A1506A2F7727AF5FBB27FF
:1007C000A45DBD4F4C915527542F4427645D7D4F48
:1007D000EB0188819927482B592BFF27E45DFD4FBA
:1007E00020813327322F2227E12FFF27E45DFD4FA1
:1007F00080819927282B392B429FC001439F900D60
:10080000529F900D11248883892F990F990B8C93F7
:10081000B5CF2091320221502150022F11272F5F96
:10082000045D1D4FF8018081E22FFF27E45DFD4F3D
:100830006081772799270E94350DD8016C9346C1B6
:10084000E0913202E150FE2EFA948F2D81508150BA
:10085000082F11278F5FC82FDD27C45DDD4F8881EA
:100860009927982F8827045D1D4FD8014C91552753
:10087000FF27E45DFD4F60817727762F6627EF2DF8
:10088000FF27E45DFD4F20813327622B732B842BE0
:10089000952B0E94490DF8016083672F770F770B26
:1008A0006883F092320290C3E0913202E150E0930B
:1008B0003202FF27E45DFD4F808199270CC0E09153
:1008C0003202E150E0933202FF27E45DFD4F808168
:1008D000992787FD909590932C0180932B0174C3E9
:1008E000A0913202A150EA2FFF27E45DFD4F208145
:1008F000A150A09332023327322F2227BB27A45DB9
:10090000BD4F8C919927282B392B30932C012093A4
:100910002B015AC3E0913202E150E0933202FF27EB
:10092000E45DFD4FE0818E2F8150843008F04CC390
:10093000E23071F0E33020F4E13009F045C306C045
:10094000E33061F0E43009F03FC30AC061E027C042
:1009500061E0809116010E94570B36C361E025C00B
:1009600061E027C0E0913202E150E0933202FF27BC
:10097000E45DFD4FE0818E2F8150843008F024C368
:10098000E23081F0E33020F4E13009F01DC306C00D
:10099000E33051F0E43009F017C30AC060E0809101
:1009A0001401D9CF60E0D5CF60E080911801D3CF9A
:1009B00060E080911A01CFCFA0913202A150EA2FBE
:1009C000FF27E45DFD4F6081A150A093320277279D
:1009D000762F6627BB27A45DBD4F2C913327622B52
:1009E000732B882799270E94070AEEC2FA01E95C57
:1009F000FD4F80819927982F882721813327822BCB
:100A0000932B9093360280933502DEC2E09132023E
:100A1000E150E0933202FF27E45DFD4FE0818E2F2D
:100A20008150873050F5E430C9F0E53038F4E230D9
:100A300079F0E33080F4E13001F507C0E630A1F051
:100A4000E63078F0E730C9F412C08091060111C099
:100A5000809108010EC080910A010BC080910C01A9
:100A600008C080910E0105C08091100102C08091E4
:100A700012010E940B0B892B11F090E001C091E054
:100A800080913202E82FFF27E45DFD4F25C1E09100
:100A90003202E150E0933202FF27E45DFD4F808196
:100AA0008150843008F090C20E947B0A209132026B
:100AB000E22FFF27E45DFD4F80832F5FE22FFF27AA
:100AC000E45DFD4F892F992780832F5F20933202A9
:100AD0007BC2E0913202E150AE2FBB27A45DBD4F37
:100AE000AC91E150E0933202FF27E45DFD4FE081DD
:100AF000109228011092290110922A01EA1709F494
:100B000095C0EA1718F481E080932901AE1708F028
:100B10005BC29AC0E0913202E150AE2FBB27A45DC8
:100B2000BD4FAC91E150E0933202FF27E45DFD4FF1
:100B3000E081109228011092290110922A01EA17EF
:100B400009F474C0EA171CF481E080932901AE1700
:100B50000CF03AC279C0A0913202A150EA2FFF27CF
:100B6000E45DFD4F4081A150EA2FFF27E45DFD4F7A
:100B70002081A150EA2FFF27E45DFD4F8081A15025
:100B8000A09332025527542F44273327422B532B4F
:100B90009927382F2227BB27A45DBD4F8C91992719
:100BA000282B392B109228011092290110922A012A
:100BB00024173507D9F12417350718F481E08093FD
:100BC00029014217530708F0FFC13EC0A09132022D
:100BD000A150EA2FFF27E45DFD4F4081A150EA2F8D
:100BE000FF27E45DFD4F2081A150EA2FFF27E45D40
:100BF000FD4F8081A150A09332025527542F4427E6
:100C00003327422B532B9927382F2227BB27A45D4C
:100C1000BD4F8C919927282B392B109228011092C7
:100C2000290110922A012417350721F481E08093CD
:100C30002801CAC1241735071CF481E080932901DB
:100C4000421753070CF0C0C181E080932A01BCC158
:100C50000E94FB008091280112C00E94FB0080913D
:100C6000280190913202882371F019C00E94FB0084
:100C70008091290104C00E94FB0080912A0190917B
:100C80003202882361F0E92FFF27E45DFD4F1082D7
:100C90009F5FE92FFF27E45DFD4F81E0E9C0E92F69
:100CA000FF27E45DFD4F1082892F26C00E94FB00C4
:100CB0008091290117C0809128018823B1F080918B
:100CC0003202E82FFF27E45DFD4F10828F5FE82F8F
:100CD000FF27E45DFD4F91E0908336C10E94FB0049
:100CE00080912A01882359F7E6CF80913202E82FBC
:100CF000FF27E45DFD4F10828F5F21C1809132029A
:100D00008150E82FFF27E45DFD4F208181508093C3
:100D10003202FA01E95CFD4F3081CA010196FC0103
:100D2000E95CFD4FE0810196909336028093350295
:100D3000222309F449C11DC0809132028150E82F5D
:100D4000FF27E45DFD4F2081815080933202FA013C
:100D5000E95CFD4F3081CA010196FC01E95CFD4F61
:100D6000E08101969093360280933502222309F0A8
:100D70002BC1832F9927982F88272E2F33273FCEDB
:100D8000FA01E95CFD4F80814F5F5F4F509336025F
:100D900040933502E0913202A82FBB27EE2359F091
:100DA000E150E0933202A35DBE4FFF27E45DFD4FAB
:100DB00080818C9309C1A35DBE4F1C9205C1FA01CD
:100DC000E95CFD4FA0814F5F5F4F50933602409327
:100DD000350290913202E92FFF27E45DFD4FBB27DA
:100DE000A35DBE4F44C0FA01E95CFD4F80814F5FB7
:100DF0005F4F5093360240933502A0913202282F64
:100E00003327AA2399F0A150235D3E4FEA2FFF27F5
:100E1000E45DFD4F8081E9018883A150A0933202F7
:100E2000BB27A45DBD4F8C918983CEC0F901E35DE2
:100E3000FE4F10821182C8C0FA01E95CFD4FA0810B
:100E40004F5F5F4F509336024093350290913202CC
:100E5000BB27E92FFF27E45DFD4FA35DBE4FED01EA
:100E6000898180839F5FE92FFF27E45DFD4F8C918F
:100E700080839F5F51CCFA01E95CFD4FE0814F5FB9
:100E80005F4F5093360240933502FF27E35DFE4FDC
:100E900080818F5F11C0FA01E95CFD4FE0814F5FF7
:100EA0005F4F5093360240933502FF27E7FDF095E0
:100EB000E35DFE4F80818150808386C0FA01E95C4A
:100EC000FD4FE0814F5F5F4F5093360240933502F4
:100ED000FF27DF01A35DBE4F2C913327322F22273E
:100EE000E25DFE4F80819927282B392B2F5F3F4FE2
:100EF0001AC0FA01E95CFD4FE0814F5F5F4F5093EC
:100F0000360240933502FF27DF01A35DBE4F2C91CF
:100F10003327322F2227E25DFE4F80819927282B2D
:100F2000392B215030402083232F330F330B2C9348
:100F30004BC080913202815008C080913202E82F6C
:100F4000FF27E45DFD4F10828F5F809332023CC02B
:100F5000E0913202E1506E2F6150862F8150815016
:100F6000C82FDD278F5F00E010E0A82FBB27A45D0E
:100F7000BD4F4C915527542F4427C45DDD4F8881C8
:100F80009927482B592BFF27E45DFD4F20813327FC
:100F9000322F2227E62FFF27E45DFD4F808199271E
:100FA000282B392B81E090E002C0880F991F2A95E9
:100FB000E2F7482359231416150614F401E010E053
:100FC00008831C9260933202DF91CF911F910F91A1
:100FD000FF9008950F931F93CF93DF9384E494E0E1
:100FE0000E94BF09882309F4F6C084E494E00E94BB
:100FF000BC0990933A048093390420E030E04FEF2D
:1010000050E060E070E084E494E00E947C0962E0DB
:1010100070E080E090E00E94070A84E494E00E947F
:10102000B9098091390490913A048130910571F4A5
:1010300081E08093270110923202109236021092C2
:1010400035028CC081E080934304B0C0029711F454
:101050000E94EC018091390490913A04039709F0C1
:101060007DC010923804109237040E944A01EC01AE
:1010700080914304882309F099C00E944A019C0191
:1010800080914304882309F091C0DC2FCC27822F64
:101090009927C82BD92B0E94EC010E94EF0960937D
:1010A0003F047093400480934104909342044EC0E7
:1010B0000E94EF0960933B0470933C0480933D04CD
:1010C00090933E0420913F043091400440914104AC
:1010D00050914204621B730B840B950B695873414A
:1010E0008040904008F0AECF84E494E00E94BF09B5
:1010F000882361F184E494E00E94BC0990933A044F
:10110000809339042091370430913804F901E95C67
:10111000FD4F80832F5F3F4F309338042093370477
:10112000AA2797FDA095BA2F20E030E0AC01BD01C1
:1011300084E494E00E947C0962E070E080E090E04A
:101140000E94070A84E494E00E94B9098091370460
:10115000909138048C179D0708F4AACF809143041E
:10116000882341F56091370480E090E00E94990166
:101170006091370470913804672F772781E090E001
:101180000E949901C0E0D0E007E312E008C0F80136
:1011900061918F01CE0102960E9499012196809162
:1011A000370490913804C817D90788F38091430415
:1011B000882339F00E94CB0104C084E494E00E94AB
:1011C000BC0984E494E00E94BF098823B1F784E459
:1011D00094E00E94B9090E94DC02DF91CF911F9137
:1011E0000F9108950E94360A0E9403020E94EA07A6
:1011F000FDCF08950895CB01BA0133274427552721
:101200000E94620C08952AE00E94FB080895AB0139
:10121000662777270E9403090895862F0E945A0C9B
:101220000895862F0E945A0C08950F931F938C01E6
:101230006DE00E9411096AE0C8010E9411091F9126
:101240000F9108950F931F938C010E940309C80109
:101250000E9415091F910F9108950F931F938C0100
:101260000E940709C8010E9415091F910F91089556
:101270000F931F938C010E940D09C8010E9415094C
:101280001F910F9108950F931F938C010E941109D4
:10129000C8010E9415091F910F910895EF92FF92C6
:1012A0000F931F93CF93DF93EC017A018B0177FFAC
:1012B0000BC06DE20E94110910950095F094E09426
:1012C000E11CF11C011D111D2AE0B801A701CE018E
:1012D0000E94FB08DF91CF911F910F91FF90EF903B
:1012E00008950F931F938C010E944E09C8010E941C
:1012F00015091F910F9108952115310521F4642FCF
:101300000E94110908952A30310519F40E944E09EE
:1013100008950E94FB0808950F931F938C010E946B
:101320007C09C8010E9415091F910F910895AB0116
:10133000662757FD6095762F0E944E0908950F93FA
:101340001F938C010E949709C8010E9415091F91E3
:101350000F910895CB010E94280D08950F931F93BC
:101360008C010E94AA09C8010E9415091F910F91C2
:1013700008950E94130C08950E94F40B08950E9492
:10138000E30B99270895CB01BA010E94A20B08959F
:10139000089508951F920F920FB60F9211248F9304
:1013A0009F93AF93BF938091490490914A04A09179
:1013B0004B04B0914C040196A11DB11D80934904CA
:1013C00090934A04A0934B04B0934C04BF91AF9107
:1013D0009F918F910F900FBE0F901F901895609165
:1013E000490470914A0480914B0490914C0427E089
:1013F000660F771F881F991F2A95D1F72DE730E0D8
:1014000040E050E00E945C0DCA01B9010895AF921E
:10141000BF92CF92DF92EF92FF920F931F935B01E7
:101420006C010E94EF097B018C010E94EF096E198B
:101430007F09800B910B6A157B058C059D05A8F330
:101440001F910F91FF90EF90DF90CF90BF90AF90E2
:101450000895019751F0880F991F880F991F0297DF
:101460002FB7F8940197F1F72FBF08957894109251
:10147000490410924A0410924B0410924C0484B513
:10148000826084BD84B5816084BD85B5826085BD80
:1014900085B5816085BDEEE6F0E080818160808366
:1014A000E1E8F0E0808182608083808181608083D8
:1014B000E0E8F0E0808181608083E1EBF0E0808112
:1014C00084608083E0EBF0E0808181608083EAE7E4
:1014D000F0E080818460808380818260808380816D
:1014E000816080838081806880831092C10008952C
:1014F000809322010895909122019295990F990F5E
:10150000907C8F70982B90937C0080917A008064FF
:1015100080937A0080917A0086FDFCCF209178003C
:10152000809179009927982F88273327822B932B36
:1015300008951F93CF93DF93182FEB0161E00E9472
:10154000ED0AE12FFF27E959FE4F8491833051F4D2
:1015500080918000806880938000D0938900C09340
:10156000880037C0843051F480918000806280937D
:101570008000D0938B00C0938A002BC0813029F467
:1015800084B5806884BDC7BD24C0823029F484B589
:10159000806284BDC8BD1DC0863041F48091B0001A
:1015A00080688093B000C093B30013C0873041F4CB
:1015B0008091B00080628093B000C093B40009C0F5
:1015C000C038D10514F460E001C061E0812F0E94B1
:1015D000570BDF91CF911F910895282F3327C90111
:1015E0008D5A9E4FFC019491215C3E4FF9018491EC
:1015F000882381F0E82FFF27E05DFE4FE491FF276D
:10160000662329F4808190958923808308958081C1
:10161000892B80830895482F5527CA0189599E4FE9
:10162000FC012491CA018D5A9E4FFC019491415CAA
:101630005E4FFA013491332319F480E090E008956D
:10164000222331F1233021F4809180008F7705C06F
:10165000243031F4809180008F7D8093800018C009
:10166000213019F484B58F7704C0223021F484B579
:101670008F7D84BD0DC0263021F48091B0008F771E
:1016800005C0273029F48091B0008F7D8093B00091
:10169000E32FFF27E65CFE4FE491FF27808120E0E7
:1016A00030E0892311F021E030E0C9010895482F8E
:1016B0005527CA0189599E4FFC012491CA018D5AB0
:1016C0009E4FFC019491415C5E4FFA0134913323AB
:1016D000C1F1222331F1233021F4809180008F77F2
:1016E00005C0243031F4809180008F7D809380008C
:1016F00018C0213019F484B58F7704C0223021F44A
:1017000084B58F7D84BD0DC0263021F48091B0005A
:101710008F7705C0273029F48091B0008F7D8093AA
:10172000B000E32FFF27EB5CFE4FE491FF27662319
:1017300029F4808190958923808308958081892B65
:1017400080830895EF92FF920F931F937B018C018A
:1017500022E030E040E050E00E947E0D205C3D4BF6
:10176000404F5F4FCA01B901A80197010E947E0D49
:101770002150304040405040BB2757FDBA95A52F1F
:10178000942F832F2F5F3F4F4F4F5F4F8093C500A4
:1017900021502093C400E1ECF0E0808180618083DF
:1017A0008081886080838081806880831F910F9111
:1017B000FF90EF900895982F8091C00085FFFCCF97
:1017C0009093C6000895809145049091460420911D
:1017D000470430914804821B930B80589F4F60E868
:1017E00070E00E94490D08954091470450914804CB
:1017F00080914504909146048417950719F48FEF62
:101800009FEF0895FA01E35BFB4F2081CA01019627
:1018100060E870E00E94490D90934804809347046B
:10182000822F9927089580914704909148049093BE
:1018300046048093450408951F920F920FB60F92AD
:1018400011242F933F934F935F936F937F938F93C5
:101850009F93AF93BF93EF93FF934091C600E091A6
:101860004504F0914604CF01019660E870E00E94C3
:10187000490D9C018091470490914804281739072D
:1018800039F0E35BFB4F40833093460420934504DB
:10189000FF91EF91BF91AF919F918F917F916F9148
:1018A0005F914F913F912F910F900FBE0F901F901E
:1018B00018950895982F8091C00085FFFCCF9093D4
:1018C000C60008952F923F924F925F926F927F923F
:1018D0008F929F92AF92BF92CF92DF92EF92FF9240
:1018E0000F931F93CF93DF93CDB7DEB7A0970FB6BB
:1018F000F894DEBF0FBECDBF6B017C0129013A0118
:10190000611571058105910541F48091C00085FF45
:10191000FCCF80E38093C60041C088249924540101
:101920001E010894211C311C8101080D191DC701DD
:10193000B601A30192010E945C0DF8016083089436
:10194000811C911CA11CB11CC701B601A30192010D
:101950000E945C0D69017A0121153105410551058F
:1019600019F79E012F5F3F4F14C00894810891081A
:10197000A108B108F901E80DF91DE081EA3010F481
:10198000E05D01C0E95C8091C00085FFFCCFE09381
:10199000C60081149104A104B10439F7A0960FB6D2
:1019A000F894DEBF0FBECDBFDF91CF911F910F9195
:1019B000FF90EF90DF90CF90BF90AF909F908F906F
:1019C0007F906F905F904F903F902F90089520E10F
:1019D00030E040E050E00E94620C089528E030E0E2
:1019E00040E050E00E94620C089522E030E040E0C8
:1019F00050E00E94620C08958091C00085FFFCCFEA
:101A00008AE08093C6000895EF92FF920F931F9390
:101A10007B018C0197FF0FC08091C00085FFFCCF38
:101A20008DE28093C60010950095F094E094E11C3F
:101A3000F11C011D111D2AE030E040E050E0C8011A
:101A4000B7010E94620C1F910F91FF90EF900895D3
:101A5000FC0107C08091C00085FFFCCF31969093B8
:101A6000C60090819923B1F70895AA1BBB1B51E1D1
:101A700007C0AA1FBB1FA617B70710F0A61BB70BFE
:101A8000881F991F5A95A9F780959095BC01CD01A3
:101A9000089597FB092E07260AD077FD04D0E5DFCD
:101AA00006D000201AF4709561957F4F0895F6F7DF
:101AB000909581959F4F0895A1E21A2EAA1BBB1BFA
:101AC000FD010DC0AA1FBB1FEE1FFF1FA217B3070A
:101AD000E407F50720F0A21BB30BE40BF50B661F20
:101AE000771F881F991F1A9469F7609570958095E4
:101AF00090959B01AC01BD01CF01089597FB092E84
:101B000005260ED057FD04D0D7DF0AD0001C38F4CC
:101B100050954095309521953F4F4F4F5F4F089519
:101B2000F6F790958095709561957F4F8F4F9F4FF9
:101B30000895EE0FFF1F0590F491E02D0994F99997
:101B4000FECFB2BDA1BDF89A119600B40895F999DF
:101B5000FECFB2BDA1BD00BC11960FB6F894FA9AA3
:081B6000F99A0FBE0895FFCFB2
:101B68005265616479000200030004000500060064
:101B78000700080009000A000B000C000100020021
:041B88000300010055
:04000005008001274F
:00000001FF
